{
  "contractName": "WakandaElections",
  "abi": [
    {
      "inputs": [],
      "stateMutability": "nonpayable",
      "type": "constructor"
    },
    {
      "anonymous": false,
      "inputs": [
        {
          "indexed": false,
          "internalType": "bool",
          "name": "isPresent",
          "type": "bool"
        }
      ],
      "name": "NewChallenger",
      "type": "event"
    },
    {
      "inputs": [],
      "name": "candidateConut",
      "outputs": [
        {
          "internalType": "uint256",
          "name": "",
          "type": "uint256"
        }
      ],
      "stateMutability": "view",
      "type": "function",
      "constant": true
    },
    {
      "inputs": [],
      "name": "chairperson",
      "outputs": [
        {
          "internalType": "address",
          "name": "",
          "type": "address"
        }
      ],
      "stateMutability": "view",
      "type": "function",
      "constant": true
    },
    {
      "inputs": [],
      "name": "currentThirdCandidate",
      "outputs": [
        {
          "internalType": "string",
          "name": "",
          "type": "string"
        }
      ],
      "stateMutability": "view",
      "type": "function",
      "constant": true
    },
    {
      "inputs": [
        {
          "internalType": "uint256",
          "name": "",
          "type": "uint256"
        }
      ],
      "name": "proposals",
      "outputs": [
        {
          "internalType": "string",
          "name": "name",
          "type": "string"
        },
        {
          "internalType": "uint256",
          "name": "voteCount",
          "type": "uint256"
        }
      ],
      "stateMutability": "view",
      "type": "function",
      "constant": true
    },
    {
      "inputs": [
        {
          "internalType": "address",
          "name": "",
          "type": "address"
        }
      ],
      "name": "voters",
      "outputs": [
        {
          "internalType": "uint256",
          "name": "weight",
          "type": "uint256"
        },
        {
          "internalType": "bool",
          "name": "voted",
          "type": "bool"
        },
        {
          "internalType": "uint256",
          "name": "vote",
          "type": "uint256"
        }
      ],
      "stateMutability": "view",
      "type": "function",
      "constant": true
    },
    {
      "inputs": [
        {
          "internalType": "string[]",
          "name": "proposalNames",
          "type": "string[]"
        }
      ],
      "name": "injectProposalNames",
      "outputs": [],
      "stateMutability": "nonpayable",
      "type": "function"
    },
    {
      "inputs": [
        {
          "internalType": "uint256",
          "name": "proposal",
          "type": "uint256"
        }
      ],
      "name": "vote",
      "outputs": [],
      "stateMutability": "nonpayable",
      "type": "function"
    },
    {
      "inputs": [],
      "name": "winningCandidates",
      "outputs": [
        {
          "components": [
            {
              "internalType": "string",
              "name": "name",
              "type": "string"
            },
            {
              "internalType": "uint256",
              "name": "voteCount",
              "type": "uint256"
            }
          ],
          "internalType": "struct WakandaElections.Proposal[]",
          "name": "",
          "type": "tuple[]"
        }
      ],
      "stateMutability": "nonpayable",
      "type": "function"
    },
    {
      "inputs": [],
      "name": "isNewChallenger",
      "outputs": [
        {
          "internalType": "bool",
          "name": "",
          "type": "bool"
        }
      ],
      "stateMutability": "nonpayable",
      "type": "function"
    },
    {
      "inputs": [],
      "name": "triggerEvent",
      "outputs": [],
      "stateMutability": "nonpayable",
      "type": "function"
    }
  ],
  "bytecode": "0x608060405234801561001057600080fd5b506004600381905550336000806101000a81548173ffffffffffffffffffffffffffffffffffffffff021916908373ffffffffffffffffffffffffffffffffffffffff16021790555060018060008060009054906101000a900473ffffffffffffffffffffffffffffffffffffffff1673ffffffffffffffffffffffffffffffffffffffff1673ffffffffffffffffffffffffffffffffffffffff1681526020019081526020016000206000018190555061172c806100d06000396000f3fe608060405234801561001057600080fd5b506004361061009e5760003560e01c80636bbb9990116100665780636bbb99901461014a578063723afae214610168578063a3ec138d14610184578063cd4d1a10146101b6578063ede48fb7146101d45761009e565b80630121b93f146100a3578063013cf08b146100bf5780631356e1ce146100f05780632e4176cf1461010e578063377968d41461012c575b600080fd5b6100bd60048036038101906100b89190610a6e565b6101de565b005b6100d960048036038101906100d49190610a6e565b6102e2565b6040516100e7929190610b43565b60405180910390f35b6100f861039e565b6040516101059190610b8e565b60405180910390f35b610116610434565b6040516101239190610bea565b60405180910390f35b610134610458565b6040516101419190610d5d565b60405180910390f35b610152610851565b60405161015f9190610d7f565b60405180910390f35b610182600480360381019061017d9190610fbc565b6108df565b005b61019e60048036038101906101999190611031565b61097f565b6040516101ad9392919061105e565b60405180910390f35b6101be6109b6565b6040516101cb9190611095565b60405180910390f35b6101dc6109bc565b005b6000600160003373ffffffffffffffffffffffffffffffffffffffff1673ffffffffffffffffffffffffffffffffffffffff16815260200190815260200160002090508060010160009054906101000a900460ff1615610273576040517f08c379a000000000000000000000000000000000000000000000000000000000815260040161026a906110fc565b60405180910390fd5b60018160010160006101000a81548160ff0219169083151502179055508181600201819055506001600283815481106102af576102ae61111c565b5b906000526020600020906002020160010160008282546102cf919061117a565b925050819055506102de6109bc565b5050565b600281815481106102f257600080fd5b9060005260206000209060020201600091509050806000018054610315906111ff565b80601f0160208091040260200160405190810160405280929190818152602001828054610341906111ff565b801561038e5780601f106103635761010080835404028352916020019161038e565b820191906000526020600020905b81548152906001019060200180831161037157829003601f168201915b5050505050908060010154905082565b6000806103a9610458565b9050600381511061042b5760046040516020016103c691906112d3565b60405160208183030381529060405280519060200120816002815181106103f0576103ef61111c565b5b60200260200101516000015160405160200161040c919061131b565b6040516020818303038152906040528051906020012014915050610431565b60009150505b90565b60008054906101000a900473ffffffffffffffffffffffffffffffffffffffff1681565b606060008060008060035467ffffffffffffffff81111561047c5761047b610da6565b5b6040519080825280602002602001820160405280156104b557816020015b6104a2610a0a565b81526020019060019003908161049a5790505b50905060005b600280549050811015610846576000600282815481106104de576104dd61111c565b5b9060005260206000209060020201905085600283815481106105035761050261111c565b5b90600052602060002090600202016001015411156106025784935085945080600101549550858360008151811061053d5761053c61111c565b5b6020026020010151602001818152505080600001805461055c906111ff565b80601f0160208091040260200160405190810160405280929190818152602001828054610588906111ff565b80156105d55780601f106105aa576101008083540402835291602001916105d5565b820191906000526020600020905b8154815290600101906020018083116105b857829003601f168201915b5050505050836000815181106105ee576105ed61111c565b5b602002602001015160000181905250610832565b84600283815481106106175761061661111c565b5b90600052602060002090600202016001015411156107135784935080600101549450848360018151811061064e5761064d61111c565b5b6020026020010151602001818152505080600001805461066d906111ff565b80601f0160208091040260200160405190810160405280929190818152602001828054610699906111ff565b80156106e65780601f106106bb576101008083540402835291602001916106e6565b820191906000526020600020905b8154815290600101906020018083116106c957829003601f168201915b5050505050836001815181106106ff576106fe61111c565b5b602002602001015160000181905250610831565b83600283815481106107285761072761111c565b5b90600052602060002090600202016001015411156108305780600101549350838360028151811061075c5761075b61111c565b5b6020026020010151602001818152505080600001805461077b906111ff565b80601f01602080910402602001604051908101604052809291908181526020018280546107a7906111ff565b80156107f45780601f106107c9576101008083540402835291602001916107f4565b820191906000526020600020905b8154815290600101906020018083116107d757829003601f168201915b50505050508360028151811061080d5761080c61111c565b5b602002602001015160000181905250806000016004908161082e91906114f4565b505b5b5b50808061083e906115dc565b9150506104bb565b508094505050505090565b6004805461085e906111ff565b80601f016020809104026020016040519081016040528092919081815260200182805461088a906111ff565b80156108d75780601f106108ac576101008083540402835291602001916108d7565b820191906000526020600020905b8154815290600101906020018083116108ba57829003601f168201915b505050505081565b60005b815181101561097b576002604051806040016040528084848151811061090b5761090a61111c565b5b6020026020010151815260200160008152509080600181540180825580915050600190039060005260206000209060020201600090919091909150600082015181600001908161095b9190611624565b506020820151816001015550508080610973906115dc565b9150506108e2565b5050565b60016020528060005260406000206000915090508060000154908060010160009054906101000a900460ff16908060020154905083565b60035481565b60006109c661039e565b90508015610a07577f879c5349adcf2d857fa582b953db911058636a7df30f3ed9a55aaa42fe5bfaf760016040516109fe9190610b8e565b60405180910390a15b50565b604051806040016040528060608152602001600081525090565b6000604051905090565b600080fd5b600080fd5b6000819050919050565b610a4b81610a38565b8114610a5657600080fd5b50565b600081359050610a6881610a42565b92915050565b600060208284031215610a8457610a83610a2e565b5b6000610a9284828501610a59565b91505092915050565b600081519050919050565b600082825260208201905092915050565b60005b83811015610ad5578082015181840152602081019050610aba565b83811115610ae4576000848401525b50505050565b6000601f19601f8301169050919050565b6000610b0682610a9b565b610b108185610aa6565b9350610b20818560208601610ab7565b610b2981610aea565b840191505092915050565b610b3d81610a38565b82525050565b60006040820190508181036000830152610b5d8185610afb565b9050610b6c6020830184610b34565b9392505050565b60008115159050919050565b610b8881610b73565b82525050565b6000602082019050610ba36000830184610b7f565b92915050565b600073ffffffffffffffffffffffffffffffffffffffff82169050919050565b6000610bd482610ba9565b9050919050565b610be481610bc9565b82525050565b6000602082019050610bff6000830184610bdb565b92915050565b600081519050919050565b600082825260208201905092915050565b6000819050602082019050919050565b600082825260208201905092915050565b6000610c4d82610a9b565b610c578185610c31565b9350610c67818560208601610ab7565b610c7081610aea565b840191505092915050565b610c8481610a38565b82525050565b60006040830160008301518482036000860152610ca78282610c42565b9150506020830151610cbc6020860182610c7b565b508091505092915050565b6000610cd38383610c8a565b905092915050565b6000602082019050919050565b6000610cf382610c05565b610cfd8185610c10565b935083602082028501610d0f85610c21565b8060005b85811015610d4b5784840389528151610d2c8582610cc7565b9450610d3783610cdb565b925060208a01995050600181019050610d13565b50829750879550505050505092915050565b60006020820190508181036000830152610d778184610ce8565b905092915050565b60006020820190508181036000830152610d998184610afb565b905092915050565b600080fd5b7f4e487b7100000000000000000000000000000000000000000000000000000000600052604160045260246000fd5b610dde82610aea565b810181811067ffffffffffffffff82111715610dfd57610dfc610da6565b5b80604052505050565b6000610e10610a24565b9050610e1c8282610dd5565b919050565b600067ffffffffffffffff821115610e3c57610e3b610da6565b5b602082029050602081019050919050565b600080fd5b600080fd5b600067ffffffffffffffff821115610e7257610e71610da6565b5b610e7b82610aea565b9050602081019050919050565b82818337600083830152505050565b6000610eaa610ea584610e57565b610e06565b905082815260208101848484011115610ec657610ec5610e52565b5b610ed1848285610e88565b509392505050565b600082601f830112610eee57610eed610da1565b5b8135610efe848260208601610e97565b91505092915050565b6000610f1a610f1584610e21565b610e06565b90508083825260208201905060208402830185811115610f3d57610f3c610e4d565b5b835b81811015610f8457803567ffffffffffffffff811115610f6257610f61610da1565b5b808601610f6f8982610ed9565b85526020850194505050602081019050610f3f565b5050509392505050565b600082601f830112610fa357610fa2610da1565b5b8135610fb3848260208601610f07565b91505092915050565b600060208284031215610fd257610fd1610a2e565b5b600082013567ffffffffffffffff811115610ff057610fef610a33565b5b610ffc84828501610f8e565b91505092915050565b61100e81610bc9565b811461101957600080fd5b50565b60008135905061102b81611005565b92915050565b60006020828403121561104757611046610a2e565b5b60006110558482850161101c565b91505092915050565b60006060820190506110736000830186610b34565b6110806020830185610b7f565b61108d6040830184610b34565b949350505050565b60006020820190506110aa6000830184610b34565b92915050565b7f416c726561647920766f7465642e000000000000000000000000000000000000600082015250565b60006110e6600e83610aa6565b91506110f1826110b0565b602082019050919050565b60006020820190508181036000830152611115816110d9565b9050919050565b7f4e487b7100000000000000000000000000000000000000000000000000000000600052603260045260246000fd5b7f4e487b7100000000000000000000000000000000000000000000000000000000600052601160045260246000fd5b600061118582610a38565b915061119083610a38565b9250827fffffffffffffffffffffffffffffffffffffffffffffffffffffffffffffffff038211156111c5576111c461114b565b5b828201905092915050565b7f4e487b7100000000000000000000000000000000000000000000000000000000600052602260045260246000fd5b6000600282049050600182168061121757607f821691505b60208210810361122a576112296111d0565b5b50919050565b600081905092915050565b60008190508160005260206000209050919050565b6000815461125d816111ff565b6112678186611230565b945060018216600081146112825760018114611297576112ca565b60ff19831686528115158202860193506112ca565b6112a08561123b565b60005b838110156112c2578154818901526001820191506020810190506112a3565b838801955050505b50505092915050565b60006112df8284611250565b915081905092915050565b60006112f582610a9b565b6112ff8185611230565b935061130f818560208601610ab7565b80840191505092915050565b600061132782846112ea565b915081905092915050565b600081549050611341816111ff565b9050919050565b60008190508160005260206000209050919050565b60006020601f8301049050919050565b600082821b905092915050565b6000600883026113aa7fffffffffffffffffffffffffffffffffffffffffffffffffffffffffffffffff8261136d565b6113b4868361136d565b95508019841693508086168417925050509392505050565b6000819050919050565b60006113f16113ec6113e784610a38565b6113cc565b610a38565b9050919050565b6000819050919050565b61140b836113d6565b61141f611417826113f8565b84845461137a565b825550505050565b600090565b611434611427565b61143f818484611402565b505050565b5b818110156114635761145860008261142c565b600181019050611445565b5050565b601f8211156114a8576114798161123b565b6114828461135d565b81016020851015611491578190505b6114a561149d8561135d565b830182611444565b50505b505050565b600082821c905092915050565b60006114cb600019846008026114ad565b1980831691505092915050565b60006114e483836114ba565b9150826002028217905092915050565b8181036115025750506115da565b61150b82611332565b67ffffffffffffffff81111561152457611523610da6565b5b61152e82546111ff565b611539828285611467565b6000601f8311600181146115685760008415611556578287015490505b61156085826114d8565b8655506115d3565b601f19841661157687611348565b96506115818661123b565b60005b828110156115a957848901548255600182019150600185019450602081019050611584565b868310156115c657848901546115c2601f8916826114ba565b8355505b6001600288020188555050505b5050505050505b565b60006115e782610a38565b91507fffffffffffffffffffffffffffffffffffffffffffffffffffffffffffffffff82036116195761161861114b565b5b600182019050919050565b61162d82610a9b565b67ffffffffffffffff81111561164657611645610da6565b5b61165082546111ff565b61165b828285611467565b600060209050601f83116001811461168e576000841561167c578287015190505b61168685826114d8565b8655506116ee565b601f19841661169c8661123b565b60005b828110156116c45784890151825560018201915060208501945060208101905061169f565b868310156116e157848901516116dd601f8916826114ba565b8355505b6001600288020188555050505b50505050505056fea264697066735822122047e76fa39b8f5175246f295a88d35b7ec7912ddc1171a1f52b70b682328671cd64736f6c634300080f0033",
  "immutableReferences": {},
  "source": "// SPDX-License-Identifier: MIT\n\npragma solidity ^0.8.15;\npragma experimental ABIEncoderV2;\n\ncontract WakandaElections {\n\n    struct Voter {\n        uint weight; \n        bool voted;  \n        uint vote;   \n    }\n\n    struct Proposal {\n        string name;   \n        uint voteCount;\n    }\n    \n    //owner of smart contract (person who deployed SC)\n    address public chairperson; \n\n    mapping(address => Voter) public voters;\n\n    Proposal[] public proposals;\n    uint public candidateConut;\n    string public currentThirdCandidate;\n\n    event NewChallenger(bool isPresent);\n\n\n    constructor() {\n        candidateConut = 4;\n        chairperson = msg.sender;\n        voters[chairperson].weight = 1;\n    }\n\n    function injectProposalNames(string[] memory proposalNames) public {\n        for (uint i = 0; i < proposalNames.length; i++) {\n            proposals.push(Proposal({\n                name: proposalNames[i],\n                voteCount: 0\n            }));\n        }\n    }\n\n    function vote(uint proposal) public {\n        Voter storage sender =  voters[msg.sender];\n        require(!sender.voted, \"Already voted.\");\n        sender.voted = true;\n        sender.vote = proposal;\n\n        proposals[proposal].voteCount += 1;\n        triggerEvent();\n    }\n\n    //First 3 candiates are winners of Wakanda elections\n    function winningCandidates() public returns (Proposal[] memory)\n    {\n        uint first = 0;\n        uint second = 0;\n        uint third = 0;\n        \n        Proposal[] memory winningCandiadatesList = new Proposal[](candidateConut);    \n\n        for (uint i = 0; i < proposals.length; i++) {\n            Proposal storage candidate = proposals[i];\n\n            // If current element is\n            // greater than first\n            if (proposals[i].voteCount > first) {\n                third = second;\n                second = first;\n                first = candidate.voteCount;\n\n                winningCandiadatesList[0].voteCount = first;\n                winningCandiadatesList[0].name = candidate.name;\n            }\n \n            // If proprsals[i].voteCount is in between first\n            // and second then update second\n            else if (proposals[i].voteCount > second) {\n                third = second;\n                second = candidate.voteCount;\n\n                winningCandiadatesList[1].voteCount = second;\n                winningCandiadatesList[1].name = candidate.name;\n            }\n \n            else if (proposals[i].voteCount > third) {\n                third = candidate.voteCount;\n\n                winningCandiadatesList[2].voteCount = third;\n                winningCandiadatesList[2].name = candidate.name;\n\n                currentThirdCandidate = candidate.name;\n            }\n        }\n\n        return  winningCandiadatesList;\n    }\n\n    function isNewChallenger() public  returns (bool) {\n        Proposal[] memory currentTopCandidates = winningCandidates();\n\n        if (currentTopCandidates.length >= 3) {\n            return keccak256(abi.encodePacked(currentTopCandidates[2].name)) == keccak256(abi.encodePacked(currentThirdCandidate));\n        }\n\n        return false;\n    }\n\n    function triggerEvent() public  {\n        bool newChallenger = isNewChallenger();\n\n        if (newChallenger) {\n            emit NewChallenger(true);\n        }\n    }\n}",
  "sourcePath": "/Users/aleksandarlicanin/Desktop/wakandaElections/contracts/WakandaElections.sol",
  "compiler": {
    "name": "solc",
    "version": "0.8.15+commit.e14f2714.Emscripten.clang"
  },
  "schemaVersion": "3.4.7",
  "updatedAt": "2022-06-28T13:21:02.507Z",
  "networkType": "ethereum",
  "devdoc": {
    "kind": "dev",
    "methods": {},
    "version": 1
  },
  "userdoc": {
    "kind": "user",
    "methods": {},
    "version": 1
  }
}