{
  "contractName": "WKNDToken",
  "abi": [
    {
      "anonymous": false,
      "inputs": [
        {
          "indexed": true,
          "internalType": "address",
          "name": "_owner",
          "type": "address"
        },
        {
          "indexed": true,
          "internalType": "address",
          "name": "_spender",
          "type": "address"
        },
        {
          "indexed": false,
          "internalType": "uint256",
          "name": "_value",
          "type": "uint256"
        }
      ],
      "name": "Approval",
      "type": "event"
    },
    {
      "anonymous": false,
      "inputs": [
        {
          "indexed": true,
          "internalType": "address",
          "name": "_from",
          "type": "address"
        },
        {
          "indexed": true,
          "internalType": "address",
          "name": "_to",
          "type": "address"
        },
        {
          "indexed": false,
          "internalType": "uint256",
          "name": "_value",
          "type": "uint256"
        }
      ],
      "name": "Transfer",
      "type": "event"
    },
    {
      "stateMutability": "nonpayable",
      "type": "fallback"
    },
    {
      "inputs": [
        {
          "internalType": "address",
          "name": "_owner",
          "type": "address"
        },
        {
          "internalType": "address",
          "name": "_spender",
          "type": "address"
        }
      ],
      "name": "allowance",
      "outputs": [
        {
          "internalType": "uint256",
          "name": "remaining",
          "type": "uint256"
        }
      ],
      "stateMutability": "view",
      "type": "function"
    },
    {
      "inputs": [
        {
          "internalType": "address",
          "name": "_spender",
          "type": "address"
        },
        {
          "internalType": "uint256",
          "name": "_value",
          "type": "uint256"
        }
      ],
      "name": "approve",
      "outputs": [
        {
          "internalType": "bool",
          "name": "success",
          "type": "bool"
        }
      ],
      "stateMutability": "nonpayable",
      "type": "function"
    },
    {
      "inputs": [
        {
          "internalType": "address",
          "name": "_owner",
          "type": "address"
        }
      ],
      "name": "balanceOf",
      "outputs": [
        {
          "internalType": "uint256",
          "name": "balance",
          "type": "uint256"
        }
      ],
      "stateMutability": "view",
      "type": "function"
    },
    {
      "inputs": [],
      "name": "decimals",
      "outputs": [
        {
          "internalType": "uint8",
          "name": "",
          "type": "uint8"
        }
      ],
      "stateMutability": "view",
      "type": "function"
    },
    {
      "inputs": [],
      "name": "name",
      "outputs": [
        {
          "internalType": "string",
          "name": "",
          "type": "string"
        }
      ],
      "stateMutability": "view",
      "type": "function"
    },
    {
      "inputs": [],
      "name": "symbol",
      "outputs": [
        {
          "internalType": "string",
          "name": "",
          "type": "string"
        }
      ],
      "stateMutability": "view",
      "type": "function"
    },
    {
      "inputs": [],
      "name": "totalSupply",
      "outputs": [
        {
          "internalType": "uint256",
          "name": "",
          "type": "uint256"
        }
      ],
      "stateMutability": "view",
      "type": "function"
    },
    {
      "inputs": [
        {
          "internalType": "address",
          "name": "_to",
          "type": "address"
        },
        {
          "internalType": "uint256",
          "name": "_value",
          "type": "uint256"
        }
      ],
      "name": "transfer",
      "outputs": [
        {
          "internalType": "bool",
          "name": "success",
          "type": "bool"
        }
      ],
      "stateMutability": "nonpayable",
      "type": "function"
    },
    {
      "inputs": [
        {
          "internalType": "address",
          "name": "_from",
          "type": "address"
        },
        {
          "internalType": "address",
          "name": "_to",
          "type": "address"
        },
        {
          "internalType": "uint256",
          "name": "_value",
          "type": "uint256"
        }
      ],
      "name": "transferFrom",
      "outputs": [
        {
          "internalType": "bool",
          "name": "success",
          "type": "bool"
        }
      ],
      "stateMutability": "nonpayable",
      "type": "function"
    },
    {
      "inputs": [],
      "name": "version",
      "outputs": [
        {
          "internalType": "string",
          "name": "",
          "type": "string"
        }
      ],
      "stateMutability": "view",
      "type": "function"
    },
    {
      "inputs": [],
      "name": "TokenWKND",
      "outputs": [],
      "stateMutability": "nonpayable",
      "type": "function"
    },
    {
      "inputs": [
        {
          "internalType": "address",
          "name": "_spender",
          "type": "address"
        },
        {
          "internalType": "uint256",
          "name": "_value",
          "type": "uint256"
        }
      ],
      "name": "approveAndCall",
      "outputs": [
        {
          "internalType": "bool",
          "name": "success",
          "type": "bool"
        }
      ],
      "stateMutability": "nonpayable",
      "type": "function"
    }
  ],
  "bytecode": "0x60806040526040518060400160405280600481526020017f48312e3000000000000000000000000000000000000000000000000000000000815250600690816200004a9190620002d9565b503480156200005857600080fd5b50620003c0565b600081519050919050565b7f4e487b7100000000000000000000000000000000000000000000000000000000600052604160045260246000fd5b7f4e487b7100000000000000000000000000000000000000000000000000000000600052602260045260246000fd5b60006002820490506001821680620000e157607f821691505b602082108103620000f757620000f662000099565b5b50919050565b60008190508160005260206000209050919050565b60006020601f8301049050919050565b600082821b905092915050565b600060088302620001617fffffffffffffffffffffffffffffffffffffffffffffffffffffffffffffffff8262000122565b6200016d868362000122565b95508019841693508086168417925050509392505050565b6000819050919050565b6000819050919050565b6000620001ba620001b4620001ae8462000185565b6200018f565b62000185565b9050919050565b6000819050919050565b620001d68362000199565b620001ee620001e582620001c1565b8484546200012f565b825550505050565b600090565b62000205620001f6565b62000212818484620001cb565b505050565b5b818110156200023a576200022e600082620001fb565b60018101905062000218565b5050565b601f82111562000289576200025381620000fd565b6200025e8462000112565b810160208510156200026e578190505b620002866200027d8562000112565b83018262000217565b50505b505050565b600082821c905092915050565b6000620002ae600019846008026200028e565b1980831691505092915050565b6000620002c983836200029b565b9150826002028217905092915050565b620002e4826200005f565b67ffffffffffffffff8111156200030057620002ff6200006a565b5b6200030c8254620000c8565b620003198282856200023e565b600060209050601f8311600181146200035157600084156200033c578287015190505b620003488582620002bb565b865550620003b8565b601f1984166200036186620000fd565b60005b828110156200038b5784890151825560018201915060208501945060208101905062000364565b86831015620003ab5784890151620003a7601f8916826200029b565b8355505b6001600288020188555050505b505050505050565b6112eb80620003d06000396000f3fe608060405234801561001057600080fd5b50600436106100b85760003560e01c806354fd4d501161007157806354fd4d50146101a857806357b0a339146101c657806370a08231146101d057806395d89b4114610200578063a9059cbb1461021e578063dd62ed3e1461024e576100b9565b806306fdde03146100be578063095ea7b3146100dc57806318160ddd1461010c57806323b872dd1461012a578063313ce5671461015a5780633177029f14610178576100b9565b5b600080fd5b6100c661027e565b6040516100d39190610c9d565b60405180910390f35b6100f660048036038101906100f19190610d58565b61030c565b6040516101039190610db3565b60405180910390f35b6101146103fe565b6040516101219190610ddd565b60405180910390f35b610144600480360381019061013f9190610df8565b610404565b6040516101519190610db3565b60405180910390f35b610162610698565b60405161016f9190610e67565b60405180910390f35b610192600480360381019061018d9190610d58565b6106ab565b60405161019f9190610db3565b60405180910390f35b6101b061079d565b6040516101bd9190610c9d565b60405180910390f35b6101ce61082b565b005b6101ea60048036038101906101e59190610e82565b61092f565b6040516101f79190610ddd565b60405180910390f35b610208610977565b6040516102159190610c9d565b60405180910390f35b61023860048036038101906102339190610d58565b610a05565b6040516102459190610db3565b60405180910390f35b61026860048036038101906102639190610eaf565b610b7d565b6040516102759190610ddd565b60405180910390f35b6003805461028b90610f1e565b80601f01602080910402602001604051908101604052809291908181526020018280546102b790610f1e565b80156103045780601f106102d957610100808354040283529160200191610304565b820191906000526020600020905b8154815290600101906020018083116102e757829003601f168201915b505050505081565b600081600160003373ffffffffffffffffffffffffffffffffffffffff1673ffffffffffffffffffffffffffffffffffffffff16815260200190815260200160002060008573ffffffffffffffffffffffffffffffffffffffff1673ffffffffffffffffffffffffffffffffffffffff168152602001908152602001600020819055508273ffffffffffffffffffffffffffffffffffffffff163373ffffffffffffffffffffffffffffffffffffffff167f8c5be1e5ebec7d5bd14f71427d1e84f3dd0314c0f7b2291e5b200ac8c7c3b925846040516103ec9190610ddd565b60405180910390a36001905092915050565b60025481565b6000816000808673ffffffffffffffffffffffffffffffffffffffff1673ffffffffffffffffffffffffffffffffffffffff16815260200190815260200160002054101580156104d0575081600160008673ffffffffffffffffffffffffffffffffffffffff1673ffffffffffffffffffffffffffffffffffffffff16815260200190815260200160002060003373ffffffffffffffffffffffffffffffffffffffff1673ffffffffffffffffffffffffffffffffffffffff1681526020019081526020016000205410155b80156104dc5750600082115b1561068c57816000808573ffffffffffffffffffffffffffffffffffffffff1673ffffffffffffffffffffffffffffffffffffffff168152602001908152602001600020600082825461052f9190610f7e565b92505081905550816000808673ffffffffffffffffffffffffffffffffffffffff1673ffffffffffffffffffffffffffffffffffffffff16815260200190815260200160002060008282546105849190610fd4565b9250508190555081600160008673ffffffffffffffffffffffffffffffffffffffff1673ffffffffffffffffffffffffffffffffffffffff16815260200190815260200160002060003373ffffffffffffffffffffffffffffffffffffffff1673ffffffffffffffffffffffffffffffffffffffff16815260200190815260200160002060008282546106179190610fd4565b925050819055508273ffffffffffffffffffffffffffffffffffffffff168473ffffffffffffffffffffffffffffffffffffffff167fddf252ad1be2c89b69c2b068fc378daa952ba7f163c4a11628f55a4df523b3ef8460405161067b9190610ddd565b60405180910390a360019050610691565b600090505b9392505050565b600460009054906101000a900460ff1681565b600081600160003373ffffffffffffffffffffffffffffffffffffffff1673ffffffffffffffffffffffffffffffffffffffff16815260200190815260200160002060008573ffffffffffffffffffffffffffffffffffffffff1673ffffffffffffffffffffffffffffffffffffffff168152602001908152602001600020819055508273ffffffffffffffffffffffffffffffffffffffff163373ffffffffffffffffffffffffffffffffffffffff167f8c5be1e5ebec7d5bd14f71427d1e84f3dd0314c0f7b2291e5b200ac8c7c3b9258460405161078b9190610ddd565b60405180910390a36001905092915050565b600680546107aa90610f1e565b80601f01602080910402602001604051908101604052809291908181526020018280546107d690610f1e565b80156108235780601f106107f857610100808354040283529160200191610823565b820191906000526020600020905b81548152906001019060200180831161080657829003601f168201915b505050505081565b68056bc75e2d631000006000803373ffffffffffffffffffffffffffffffffffffffff1673ffffffffffffffffffffffffffffffffffffffff1681526020019081526020016000208190555068056bc75e2d631000006002819055506040518060400160405280600a81526020017f574b4e4420546f6b656e00000000000000000000000000000000000000000000815250600390816108cb91906111e3565b506012600460006101000a81548160ff021916908360ff1602179055506040518060400160405280600481526020017f574b4e44000000000000000000000000000000000000000000000000000000008152506005908161092c91906111e3565b50565b60008060008373ffffffffffffffffffffffffffffffffffffffff1673ffffffffffffffffffffffffffffffffffffffff168152602001908152602001600020549050919050565b6005805461098490610f1e565b80601f01602080910402602001604051908101604052809291908181526020018280546109b090610f1e565b80156109fd5780601f106109d2576101008083540402835291602001916109fd565b820191906000526020600020905b8154815290600101906020018083116109e057829003601f168201915b505050505081565b6000816000803373ffffffffffffffffffffffffffffffffffffffff1673ffffffffffffffffffffffffffffffffffffffff1681526020019081526020016000205410158015610a555750600082115b15610b7257816000803373ffffffffffffffffffffffffffffffffffffffff1673ffffffffffffffffffffffffffffffffffffffff1681526020019081526020016000206000828254610aa89190610fd4565b92505081905550816000808573ffffffffffffffffffffffffffffffffffffffff1673ffffffffffffffffffffffffffffffffffffffff1681526020019081526020016000206000828254610afd9190610f7e565b925050819055508273ffffffffffffffffffffffffffffffffffffffff163373ffffffffffffffffffffffffffffffffffffffff167fddf252ad1be2c89b69c2b068fc378daa952ba7f163c4a11628f55a4df523b3ef84604051610b619190610ddd565b60405180910390a360019050610b77565b600090505b92915050565b6000600160008473ffffffffffffffffffffffffffffffffffffffff1673ffffffffffffffffffffffffffffffffffffffff16815260200190815260200160002060008373ffffffffffffffffffffffffffffffffffffffff1673ffffffffffffffffffffffffffffffffffffffff16815260200190815260200160002054905092915050565b600081519050919050565b600082825260208201905092915050565b60005b83811015610c3e578082015181840152602081019050610c23565b83811115610c4d576000848401525b50505050565b6000601f19601f8301169050919050565b6000610c6f82610c04565b610c798185610c0f565b9350610c89818560208601610c20565b610c9281610c53565b840191505092915050565b60006020820190508181036000830152610cb78184610c64565b905092915050565b600080fd5b600073ffffffffffffffffffffffffffffffffffffffff82169050919050565b6000610cef82610cc4565b9050919050565b610cff81610ce4565b8114610d0a57600080fd5b50565b600081359050610d1c81610cf6565b92915050565b6000819050919050565b610d3581610d22565b8114610d4057600080fd5b50565b600081359050610d5281610d2c565b92915050565b60008060408385031215610d6f57610d6e610cbf565b5b6000610d7d85828601610d0d565b9250506020610d8e85828601610d43565b9150509250929050565b60008115159050919050565b610dad81610d98565b82525050565b6000602082019050610dc86000830184610da4565b92915050565b610dd781610d22565b82525050565b6000602082019050610df26000830184610dce565b92915050565b600080600060608486031215610e1157610e10610cbf565b5b6000610e1f86828701610d0d565b9350506020610e3086828701610d0d565b9250506040610e4186828701610d43565b9150509250925092565b600060ff82169050919050565b610e6181610e4b565b82525050565b6000602082019050610e7c6000830184610e58565b92915050565b600060208284031215610e9857610e97610cbf565b5b6000610ea684828501610d0d565b91505092915050565b60008060408385031215610ec657610ec5610cbf565b5b6000610ed485828601610d0d565b9250506020610ee585828601610d0d565b9150509250929050565b7f4e487b7100000000000000000000000000000000000000000000000000000000600052602260045260246000fd5b60006002820490506001821680610f3657607f821691505b602082108103610f4957610f48610eef565b5b50919050565b7f4e487b7100000000000000000000000000000000000000000000000000000000600052601160045260246000fd5b6000610f8982610d22565b9150610f9483610d22565b9250827fffffffffffffffffffffffffffffffffffffffffffffffffffffffffffffffff03821115610fc957610fc8610f4f565b5b828201905092915050565b6000610fdf82610d22565b9150610fea83610d22565b925082821015610ffd57610ffc610f4f565b5b828203905092915050565b7f4e487b7100000000000000000000000000000000000000000000000000000000600052604160045260246000fd5b60008190508160005260206000209050919050565b60006020601f8301049050919050565b600082821b905092915050565b6000600883026110997fffffffffffffffffffffffffffffffffffffffffffffffffffffffffffffffff8261105c565b6110a3868361105c565b95508019841693508086168417925050509392505050565b6000819050919050565b60006110e06110db6110d684610d22565b6110bb565b610d22565b9050919050565b6000819050919050565b6110fa836110c5565b61110e611106826110e7565b848454611069565b825550505050565b600090565b611123611116565b61112e8184846110f1565b505050565b5b818110156111525761114760008261111b565b600181019050611134565b5050565b601f8211156111975761116881611037565b6111718461104c565b81016020851015611180578190505b61119461118c8561104c565b830182611133565b50505b505050565b600082821c905092915050565b60006111ba6000198460080261119c565b1980831691505092915050565b60006111d383836111a9565b9150826002028217905092915050565b6111ec82610c04565b67ffffffffffffffff81111561120557611204611008565b5b61120f8254610f1e565b61121a828285611156565b600060209050601f83116001811461124d576000841561123b578287015190505b61124585826111c7565b8655506112ad565b601f19841661125b86611037565b60005b828110156112835784890151825560018201915060208501945060208101905061125e565b868310156112a0578489015161129c601f8916826111a9565b8355505b6001600288020188555050505b50505050505056fea26469706673582212203c8091bb67e7fce6ce0b460e6159017110d495f08bf9958621db7487613bc96864736f6c634300080f0033",
  "immutableReferences": {},
  "source": "// SPDX-License-Identifier: MIT\n\npragma solidity ^0.8.15;\ncontract Token {\n    function totalSupply() external view virtual returns (uint256 supply) {}\n    function balanceOf(address _owner) public view virtual returns (uint256 balance) {}\n    function transfer(address _to, uint256 _value) public virtual returns (bool success) {}\n    function transferFrom(address _from, address _to, uint256 _value) virtual public returns (bool success) {}\n    function approve(address _spender, uint256 _value) public  virtual returns (bool success) {}\n    function allowance(address _owner, address _spender) public view virtual returns (uint256 remaining) {}\n\n    event Transfer(address indexed _from, address indexed _to, uint256 _value);\n    event Approval(address indexed _owner, address indexed _spender, uint256 _value);\n    \n}\n\ncontract StandardToken is Token {\n\n    function transfer(address _to, uint256 _value) public override returns (bool success) {\n        if (balances[msg.sender] >= _value && _value > 0) {\n            balances[msg.sender] -= _value;\n            balances[_to] += _value;\n            emit Transfer(msg.sender, _to, _value);\n            return true;\n        } else { return false; }\n    }\n\n    function transferFrom(address _from, address _to, uint256 _value) public override returns (bool success) {\n        if (balances[_from] >= _value && allowed[_from][msg.sender] >= _value && _value > 0) {\n            balances[_to] += _value;\n            balances[_from] -= _value;\n            allowed[_from][msg.sender] -= _value;\n            emit Transfer(_from, _to, _value);\n            return true;\n        } else { return false; }\n    }\n\n    function balanceOf(address _owner) public  view override returns (uint256 balance) {\n        return balances[_owner];\n    }\n\n    function approve(address _spender, uint256 _value) public override returns (bool success) {\n        allowed[msg.sender][_spender] = _value;\n        emit Approval(msg.sender, _spender, _value);\n        return true;\n    }\n\n    function allowance(address _owner, address _spender) public view override returns (uint256 remaining) {\n      return allowed[_owner][_spender];\n    }\n\n    mapping (address => uint256) balances;\n    mapping (address => mapping (address => uint256)) allowed;\n    uint256 public override totalSupply;\n}\n\n\ncontract WKNDToken is StandardToken {\n\n    fallback() external {\n        //if ether is sent to this address, send it back.\n        revert();\n    }\n\n    string public name;                   \n    uint8 public decimals;                \n    string public symbol;                \n    string public version = 'H1.0';     \n\n\n    function TokenWKND () public {\n        balances[msg.sender] = 100000000000000000000;               \n        totalSupply = 100000000000000000000;                        \n        name = \"WKND Token\";                                   \n        decimals = 18;                           \n        symbol = \"WKND\";                             \n    }\n\n    function approveAndCall (address  _spender, uint256   _value) public returns (bool success) {\n        allowed[msg.sender][_spender] = _value;\n        emit Approval(msg.sender, _spender, _value);        \n        \n        return true;\n    }\n}",
  "sourcePath": "/Users/aleksandarlicanin/Desktop/wakandaElections/contracts/WakandaToken.sol",
  "compiler": {
    "name": "solc",
    "version": "0.8.15+commit.e14f2714.Emscripten.clang"
  },
  "schemaVersion": "3.4.7",
  "updatedAt": "2022-06-28T13:18:55.795Z",
  "devdoc": {
    "kind": "dev",
    "methods": {},
    "version": 1
  },
  "userdoc": {
    "kind": "user",
    "methods": {},
    "version": 1
  }
}